:100000000C9462030C948A030C948A030C948A0364
:100010000C948A030C948A030C948A030C948A032C
:100020000C948A030C948A030C948A030C948A031C
:100030000C948A030C948A030C948A030C948A030C
:100040000C948F150C948A030C94BE030C949803A3
:100050000C948A030C948A030C948A030C948A03EC
:100060000C941B100C948A0300000000240027004D
:100070002A0000000008000201000003040700003D
:10008000000000000000253375252500010204084A
:1000900010204080010204081020010204081020F2
:1000A00000000000250028002B00040404040404C0
:1000B000040402020202020203030303030300001A
:1000C0000000003E5B4F5B3E3E6B4F6B3E1C3E7C38
:1000D0003E1C183C7E3C181C577D571C1C5E7F5EE6
:1000E0001C00183C1800FFE7C3E7FF0018241800A5
:1000F000FFE7DBE7FF30483A060E2629792926403C
:100100007F050507407F05253F5A3CE73C5A7F3E67
:100110001C1C08081C1C3E7F14227F22145F5F00F9
:100120005F5F06097F017F006689956A6060606095
:100130006094A2FFA29408047E040810207E201080
:1001400008082A1C08081C2A08081E101010100C89
:100150001E0C1E0C30383E3830060E3E0E060000D7
:1001600000000000005F00000007000700147F147B
:100170007F14242A7F2A12231308646236495620EA
:10018000500008070300001C2241000041221C000F
:100190002A1C7F1C2A08083E0808008070300008CE
:1001A00008080808000060600020100804023E51A2
:1001B00049453E00427F4000724949494621414934
:1001C0004D331814127F1027454545393C4A49499B
:1001D0003141211109073649494936464949291E05
:1001E00000001400000040340000000814224114F4
:1001F00014141414004122140802015909063E4146
:100200005D594E7C1211127C7F494949363E41416D
:1002100041227F4141413E7F494949417F090909C6
:10022000013E414151737F0808087F00417F410032
:100230002040413F017F081422417F404040407FE1
:10024000021C027F7F0408107F3E4141413E7F092E
:100250000909063E4151215E7F091929462649496F
:10026000493203017F01033F4040403F1F204020AF
:100270001F3F4038403F63140814630304780403AD
:100280006159494D43007F4141410204081020005B
:100290004141417F040201020440404040400003CC
:1002A00007080020545478407F2844443838444498
:1002B0004428384444287F385454541800087E0990
:1002C0000218A4A49C787F0804047800447D4000B0
:1002D0002040403D007F1028440000417F40007CCA
:1002E000047804787C080404783844444438FC18C2
:1002F00024241818242418FC7C08040408485454A6
:10030000542404043F44243C4040207C1C204020D2
:100310001C3C4030403C44281028444C9090907C39
:100320004464544C4400083641000000770000004B
:100330004136080002010204023C2623263C1EA18D
:10034000A161123A4040207A3854545559215555EC
:10035000794122545478422155547840205455799B
:10036000400C1E527212395555555939545454592E
:1003700039555454580000457C410002457D4200E7
:1003800001457C407D1211127DF0282528F07C5417
:100390005545002054547C547C0A097F4932494910
:1003A00049323A4444443A324A4848303A41412179
:1003B0007A3A42402078009DA0A07D3D4242423DD5
:1003C0003D4040403D3C24FF2424487E4943662B69
:1003D0002FFC2F2BFF0929F620C0887E090320540B
:1003E0005479410000447D413048484A3238404009
:1003F000227A007A0A0A727D0D19317D2629292F69
:1004000028262929292630484D4020380808080880
:1004100008080808382F10C8ACBA2F102834FA0082
:10042000007B000008142A142222142A1408550004
:10043000550055AA55AA55AAFF55FF55FF000000C3
:10044000FF00101010FF00141414FF001010FF0024
:10045000FF1010F010F0141414FC001414F700FF37
:100460000000FF00FF1414F404FC141417101F10F4
:10047000101F101F1414141F00101010F0000000A3
:10048000001F101010101F10101010F010000000AE
:10049000FF101010101010101010FF10000000FFBF
:1004A000140000FF00FF00001F10170000FC04F400
:1004B00014141710171414F404F40000FF00F714B8
:1004C000141414141414F700F7141414171410103F
:1004D0001F101F141414F4141010F010F000001F5B
:1004E000101F0000001F14000000FC140000F0109A
:1004F000F01010FF10FF141414FF141010101F0040
:10050000000000F010FFFFFFFFFFF0F0F0F0F0FF41
:10051000FFFF0000000000FFFF0F0F0F0F0F384418
:10052000443844FC4A4A4A347E02020606027E02ED
:100530007E0263554941633844443C04407E201E9A
:100540002006027E020299A5E7A5991C2A492A1CC9
:100550004C7201724C304A4D4D303048784830BCB6
:10056000625A463D3E494949007E0101017E2A2AE0
:100570002A2A2A44445F444440514A444040444A61
:1005800051400000FF0103E080FF000008086B6B92
:10059000083612362436060F090F06000018180018
:1005A00000001010003040FF0101001F01011E007B
:1005B000191D1712003C3C3C3C00000000000000EC
:1005C000000023002600290000407A10F35A00A002
:1005D000724E18090010A5D4E80000E8764817000C
:1005E00000E40B54020000CA9A3B000000E1F5054C
:1005F000000080969800000040420F000000A08696
:1006000001000000102700000000E80300000000C7
:100610006400000000000A0000000000010000006B
:1006200000002C76D888DC674F0823DFC1DFAE5985
:10063000E1B1B796E5E3E453C63AE651997696E818
:10064000E6C28426EB898C9B62ED407C6FFCEFBC9C
:100650009C9F40F2BAA56FA5F490055A2AF75C93C7
:100660006B6CF9676DC11BFCE0E40D47FEF520E6FD
:10067000B500D0ED902E0300943577050080841EE0
:10068000080000204E0A000000C80C333333330F3B
:10069000986E12831141EF8D2114893BE65516CFD8
:1006A000FEE6DB18D1844B381BF77C1D901DA4BBE4
:1006B000E424203284725E228100C9F124ECA1E599
:1006C0003D27EE1F11241FBECFEFD8E0DEBFCDBF08
:1006D00012E0A0E0B1E0E4EBF6E502C005900D9277
:1006E000A034B107D9F724E0A0E4B2E001C01D9224
:1006F000AB33B207E1F713E0C2E6D3E004C02197C1
:10070000FE010E94C221C136D107C9F70E943D18DF
:100710000C94582B0C94000081EB92E00E945F0532
:1007200021E0892B09F420E0822F08950E945A24A9
:100730001F920F920FB60F9211242F933F934F9356
:100740005F936F937F938F939F93AF93BF93EF9339
:10075000FF9381EB92E00E940A0AFF91EF91BF9113
:10076000AF919F918F917F916F915F914F913F9149
:100770002F910F900FBE0F901F9018951F920F9200
:100780000FB60F9211242F938F939F93EF93FF93A4
:10079000E091C102F091C2028081E091C702F09124
:1007A000C80282FD12C090818091CA028F5F8F7350
:1007B0002091CB02821751F0E091CA02F0E0EF5491
:1007C000FD4F958F8093CA0201C08081FF91EF9108
:1007D0009F918F912F910F900FBE0F901F901895A2
:1007E000382F2091B0029091E403213208F049C0E3
:1007F00080918D028111FCCF42E040938D023093B5
:100800008C023FEF30938B0210928A022093890270
:10081000A0E9B2E049E652E0FA013E2F341B32175C
:1008200018F43D913193F9CF10926802209168023B
:10083000990F922B9093680290916702913061F426
:1008400010926702909168029093BB009091BC0057
:1008500093FDF8CF95EC01C095EE9093BC0090917C
:100860008D029230E1F390918B029F3F79F080915D
:100870008B02803241F080918B02803331F084E032
:1008800005C081E003C082E001C083E010928F02C6
:100890001092B00210928E0208952F923F924F92C2
:1008A0005F926F927F928F929F92AF92BF92CF9200
:1008B000DF92EF92FF920F931F93CF93DF937C0110
:1008C0006B01EA0181E090E05C01A41AB50A66249C
:1008D0007724641A750A660C771C00E010E08824FF
:1008E0008394912C822F8470582E822F8270482EF0
:1008F000822F8870382E2170222E0C171D070CF0C5
:10090000A9C0B7FC06C0219782E0680E711CA60C36
:10091000B71C0F5F1F4F82E0880E911CA80CB91CFA
:10092000552021F1E091AC03F091AD030084F185F5
:10093000E02D2FEF3FEFA6014C0F5D1FB8016E0DAC
:100940007F1D8CEA93E00995E091AC03F091AD0333
:100950000084F185E02D2FEF3FEFA8014C0D5D1DC8
:10096000B7016C0F7D1F8CEA93E00995442021F1BB
:10097000E091AC03F091AD030084F185E02D2FEF01
:100980003FEFA6014C1B5D0BB8016E0D7F1D8CEA7D
:1009900093E00995E091AC03F091AD030084F185FB
:1009A000E02D2FEF3FEFA601401B510BB7016C0F5D
:1009B0007D1F8CEA93E00995332021F1E091AC038F
:1009C000F091AD030084F185E02D2FEF3FEFA801FA
:1009D0004C0D5D1DB7016C1B7D0B8CEA93E00995F6
:1009E000E091AC03F091AD030084F185E02D2FEF91
:1009F0003FEFA6014C0F5D1FB701601B710B8CEA26
:100A000093E00995222009F478CFE091AC03F091AE
:100A1000AD030084F185E02D2FEF3FEFA601401BD1
:100A2000510BB7016C1B7D0B8CEA93E00995E091AB
:100A3000AC03F091AD030084F185E02D2FEF3FEF83
:100A4000A6014C1B5D0BB701601B710B8CEA93E098
:100A5000099553CFDF91CF911F910F91FF90EF90A8
:100A6000DF90CF90BF90AF909F908F907F906F90CE
:100A70005F904F903F902F900895FC01918D828D53
:100A8000981761F0828DDF01A80FB11D5D968C91E2
:100A9000928D9F5F9F73928F90E008958FEF9FEFED
:100AA0000895FC01918D828D981731F0828DE80FA9
:100AB000F11D858D90E008958FEF9FEF0895FC0163
:100AC000918D228D892F90E0805C9F4F821B910930
:100AD0008F739927089580E090E0892B29F00E9478
:100AE0008C0381110C9400000895CF92DF92EF9255
:100AF000FF920F931F93CF93DF936C017A018B01C9
:100B0000C0E0D0E0CE15DF0589F0D8016D918D01F0
:100B1000D601ED91FC910190F081E02DC60109957F
:100B2000892B11F47E0102C02196ECCFC701DF9121
:100B3000CF911F910F91FF90EF90DF90CF9008958C
:100B40000F931F93CF93DF93E9018901242F45E091
:100B50000E945F24FC0101900020E9F73197E81B17
:100B6000F90BFF27CF0105978C0F9D1FDF91CF91C8
:100B70001F910F910895FF920F931F93CF93DF93CF
:100B80006091E2037091E303813059F038F08230D4
:100B900059F0833061F0636871600BC06368716401
:100BA00008C06368716505C06368716602C06368E8
:100BB0007167EB01D0688091DF03FF24F394F0921A
:100BC0008E028093E40310928F021092B00261E0D3
:100BD0008EE493E00E94CA0D6D2F8EE493E00E9494
:100BE000CA0D6C2F8EE493E00E94CA0D81E00E9432
:100BF000F0036091E00370E080E090E00E94551502
:100C0000C091DF03F0928E02C093E40310928F0232
:100C10001092B00260E08EE493E00E94CA0D81E081
:100C20000E94F00380918D028111FCCF81E08093BE
:100C30008D0280938C029FEF90938B0210928A0218
:100C4000809389028093680280916802CC0FC82B40
:100C5000C093680280916702813061F4109267024C
:100C6000809168028093BB008091BC0083FDF8CF27
:100C700085EC01C085EE8093BC0080918D028130AF
:100C8000E1F380918A02823018F480918A0201C0D7
:100C900082E0A9E6B2E027E432E0F9019E2F921B40
:100CA000981718F49D919193F9CF10924602809372
:100CB00045028EE493E00E947E0DC82F8EE493E0FF
:100CC0000E947E0D1C2F00E09801282BC901009086
:100CD000E10302C0969587950A94E2F7DF91CF91E0
:100CE0001F910F91FF9008952F923F924F925F9224
:100CF0006F927F928F929F92AF92BF92CF92DF922C
:100D0000EF92FF920F931F93CF93DF93CDB7DEB790
:100D1000A8970FB6F894DEBF0FBECDBF98A78FA3DC
:100D20005B016A01390128012617370784F4872DF2
:100D3000E616F7060CF0D0C137017B01A22EB82EC3
:100D40008D2D68014FA058A44FA388A70DC0E216AF
:100D5000F306C4F4962D872D3701E92EF82E9C2D2D
:100D60008D2D6201492E582E6A147B045CF49A2D55
:100D70008B2D5301692E782E9FA188A5D8A6CFA2CE
:100D8000C92ED82EE091AC03F091AD030680F78117
:100D9000E02D8CEA93E00995AE14BF0481F52FA1F4
:100DA00038A5C216D3065CF09FA188A52C153D0579
:100DB00014F49C2D8D2DCFA0D8A49FA388A74C14EC
:100DC0005D0444F04FA158A54415550514F458A6E8
:100DD0004FA22601E091AC03F091AD032FA138A5FD
:100DE000241935092F5F3F4F0684F785E02D00E079
:100DF00010E0A501B2018CEA93E009954BC1C60150
:100E00006FA178A5861B970B93012A193B09120144
:100E1000261A370AD701AA19BB09BA87A987F2018E
:100E2000EC19FD09FE87ED87A701461957095A8B72
:100E3000498B6E147F0431F0B301615071097E8BD0
:100E40006D8B02C07E8A6D8A45011D821E821F82C3
:100E5000188619821A821B821C82A901330F660B25
:100E6000770B4F8B588F698F7A8F29853A85032EA0
:100E7000000C440B550B2B8F3C8F4D8F5E8FAC01BC
:100E8000990F660B770B4F8F58A369A37AA3B10113
:100E9000032C000C880B990B6BA37CA38DA39EA342
:100EA000AD89BE89A815B9050CF45AC069817A814B
:100EB0008B819C812F89388D498D5A8D0E946321A9
:100EC0004FA058A4420E531E6D817E818F8198855C
:100ED0002B8D3C8D4D8D5E8D0E9463218FA198A539
:100EE000280F391F49815A816B817C818F8D98A190
:100EF000A9A1BAA1480F591F6A1F7B1F49835A83B2
:100F00006B837C834D815E816F8178858BA19CA1F1
:100F1000ADA1BEA1480F591F6A1F7B1F4D835E8381
:100F20006F837887241535052CF4942D852D2901A0
:100F3000292F382FE091AC03F091AD032419350926
:100F40002F5F3F4F0684F785E02D00E010E0A401FD
:100F5000B2018CEA93E009959FEF891A990AA0CF14
:100F6000940126193709ED85FE85E29FC001E39FB4
:100F7000900DF29F900D11249C01990F440B550B7D
:100F800029833A834B835C83C4018A199B09289E79
:100F90002001299E500C389E500C1124052C000C69
:100FA0006608770849895A89052E000C660B770B6D
:100FB000498B5A8B6B8B7C8B69857A85072E000C4D
:100FC000880B990B69877A878B879C87CF01092EBD
:100FD000000CAA0BBB0B8D879E87AF87B88B910146
:100FE000330C440B550B2D833E834F835887E814F5
:100FF000F9040CF44FC069817A818B819C81298925
:101000003A894B895C890E9463215601A20EB31E66
:10101000C301B20129853A854B855C850E94632115
:101020006FA178A5260F371F89819A81AB81BC817A
:101030004D855E856F857889840F951FA61FB71F24
:1010400089839A83AB83BC836D817E818F819885F0
:10105000460E571E681E791E2A153B052CF49A2D44
:101060008B2D5901292F382FE091AC03F091AD035E
:101070002A193B092F5F3F4F0684F785E02D00E0DA
:1010800010E0A401B5018CEA93E009957FEF871A7F
:10109000970AADCFE091AC03F091AD030288F389DC
:1010A000E02D8CEA93E0A8960FB6F894DEBF0FBE51
:1010B000CDBFDF91CF911F910F91FF90EF90DF9007
:1010C000CF90BF90AF909F908F907F906F905F90E8
:1010D0004F903F902F9009943B01A22EB82E8D2D5A
:1010E000CFA0D8A44FA388A74DCE2F923F924F9266
:1010F0005F926F927F928F929F92AF92BF92CF92A8
:10110000DF92EF92FF920F931F93CF93DF9300D064
:1011100000D000D0CDB7DEB74C017B011A01290108
:101120001E830D838CEAC82E83E0D82ED601ED9164
:10113000FC910680F781E02DC60109956D807E80C7
:10114000719461947108F301EE0FFF1FFC83EB8330
:101150003F01620C731CAD80BE80A80CB91CD60187
:10116000ED91FC910684F785E02D0FEF1FEF9301C1
:10117000A701B501C6010995F701E40DF51DFA8334
:10118000E983D601ED91FC9149815A814150510981
:101190000684F785E02D9301B501C60109956B80A2
:1011A0007C80640C751CED81FE81EE0EFF1ED60165
:1011B000ED91FC910484F585E02D9301A701B40124
:1011C000C6010995820C931CD601ED91FC91B401E6
:1011D000615071090484F585E02D9301A701C601D2
:1011E000099521E04D815E81B701C5010E944D0442
:1011F000ED81FE818E1A9F0AF1E08F1A910822E09C
:101200004D815E81B701C4010E944D04E980FA80DE
:101210008D819E81E81AF90A91E0E91AF10824E02B
:101220004D815E81B701C4010E944D0428E04D81CB
:101230005E81B701C5010E944D04D601ED91FC917C
:101240000288F389E02DC60126960FB6F894DEBF1A
:101250000FBECDBFDF91CF911F910F91FF90EF9007
:10126000DF90CF90BF90AF909F908F907F906F90C6
:101270005F904F903F902F9009942F923F924F9202
:101280005F926F927F928F929F92AF92BF92CF9216
:10129000DF92EF92FF920F931F93CF93DF9300D0D3
:1012A00000D0CDB7DEB76C015B014901790123E0C5
:1012B000E20EF11C80E090E0E2E0F0E0FC83EB83E2
:1012C0002CEF222E33243A9466246A94762CF42F41
:1012D000F170F98342704A832C012FEF421A520AAF
:1012E000C70188199909680E791E3981332371F174
:1012F000E091AC03F091AD032B813C81220F331FB1
:101300002F5F3F4F280D391D0484F585E02D0FEF29
:101310001FEFA5018B819C81481B590BB601640D01
:10132000751D8CEA93E00995E091AC03F091AD0353
:101330000484F585E02D9701A501441955096B81B9
:101340007C816C0D7D1D8CEA93E009959A8199232F
:1013500079F1E091AC03F091AD032B813C81220F38
:10136000331F2F5F3F4F280D391D0484F585E02D75
:101370000FEF1FEFA5018B819C81481B590BB60114
:10138000641975098CEA93E00995E091AC03F0913A
:10139000AD030484F585E02D9701A5014419550995
:1013A000B6018B819C81681B790B8CEA93E00995CF
:1013B000EB81FC814E165F06B4F477FC0AC022E094
:1013C000220E311C620C731C81E090E09C838B83A5
:1013D00004C0E2E0F0E0FC83EB83F2E0EF0EF11CEE
:1013E00081E090E079CF0F900F900F900F90DF91F8
:1013F000CF911F910F91FF90EF90DF90CF90BF9012
:10140000AF909F908F907F906F905F904F903F90A4
:101410002F900895FC01848DDF01A80FB11DA35A00
:10142000BF4F2C91848D90E001968F739927848F04
:10143000A689B7892C93A089B1898C9180648C93FB
:10144000938D848D981306C00288F389E02D8081E6
:101450008F7D80830895EF92FF920F931F93CF9318
:10146000DF93EC0181E0888F9B8D8C8D981305C0F4
:10147000E889F989808185FD24C0F62E0B8D10E066
:101480000F5F1F4F0F731127E02E8C8DE8120CC0D9
:101490000FB607FCFACFE889F989808185FFF5CF7F
:1014A000CE010E940A0AF1CF8B8DFE01E80FF11DDB
:1014B000E35AFF4FF0820B8FEA89FB8980818062BB
:1014C00007C0EE89FF896083E889F989808180649B
:1014D000808381E090E0DF91CF911F910F91FF9089
:1014E000EF900895CF93DF93EC01888D8823C9F0A6
:1014F000EA89FB89808185FD05C0A889B9898C911D
:1015000086FD0FC00FB607FCF5CF808185FFF2CFB7
:10151000A889B9898C9185FFEDCFCE010E940A0A76
:10152000E7CFDF91CF9108956F927F928F929F9234
:10153000AF92BF92CF92DF92EF92FF920F931F93E1
:10154000CF93DF93EC014B015A0169013801E88127
:10155000F9810680F781E02D0995E881F9810684FB
:10156000F785E02D87019601A501B401CE0109950B
:10157000E881F981A501460D571D415051090684A6
:10158000F785E02D9601B401CE010995E881F98136
:101590000484F585E02D9301A501B401CE010995E0
:1015A000E881F981C80CD91CB60161507109048425
:1015B000F585E02D9301A501CE010995E881F9811A
:1015C0000288F389E02DCE01DF91CF911F910F9119
:1015D000FF90EF90DF90CF90BF90AF909F908F9053
:1015E0007F906F900994CF92DF92EF92FF920F93CA
:1015F0001F93CF93DF9300D000D000D0CDB7DEB7DC
:101600006C01DC01ED91FC916217730789F40417FA
:1016100015072CF4942F852FA801092F182F041BD0
:10162000150B98012F5F3F4F008CF18DE02D12C0FC
:101630004017510709F5261737072CF4962F872FE7
:10164000B901292F382F261B370B2F5F3F4F028CF4
:10165000F38DE02D8701C601099526960FB6F89403
:10166000DEBF0FBECDBFDF91CF911F910F91FF90D5
:10167000EF90DF90CF9008950680F781E02D2D83C5
:101680003E834B835C8369837A830995D601ED9110
:10169000FC910088F189E02D2D813E814B815C8198
:1016A00069817A81C6010995D601ED91FC91028884
:1016B000F389E02DC60126960FB6F894DEBF0FBE63
:1016C000CDBFDF91CF911F910F91FF90EF90DF90F1
:1016D000CF900994EF92FF920F931F93DC01ED914D
:1016E000FC9111971A960D911C911B9718962D91AC
:1016F0003C911997048CF58DE02D7B0140E050E082
:1017000060E070E009951F910F91FF90EF900895B0
:101710004F925F926F927F928F929F92AF92BF9201
:10172000CF92DF92EF92FF920F931F93CF93DF93AD
:1017300000D0CDB7DEB76C015A0139014801DC0198
:10174000ED91FC910680F781E02D69837A830995FC
:101750006981462E7A81572E640C751CD601ED9155
:10176000FC91461457046CF40484F585E02D870140
:101770009401A501B201C6010995BFEF4B1A5B0A9E
:10178000EDCF0288F389E02DC6010F900F90DF9115
:10179000CF911F910F91FF90EF90DF90CF90BF906E
:1017A000AF909F908F907F906F905F904F90099433
:1017B000AF92BF92CF92DF92EF92FF920F931F935F
:1017C000CF93DF9300D000D0CDB7DEB75C016901C5
:1017D000DC01ED91FC910680F781E02D4B835C8369
:1017E00069837A830995D501ED91FC9169817A81AC
:1017F0009B012C0D3D1D215031090088F189E02D00
:1018000078014B815C818A01C5010995D501ED9173
:10181000FC910288F389E02DC5010F900F900F9085
:101820000F90DF91CF911F910F91FF90EF90DF907C
:10183000CF90BF90AF900994AF92BF92CF92DF92BA
:10184000EF92FF920F931F93CF93DF9300D000D0BE
:10185000CDB7DEB75C016901DC01ED91FC9106803A
:10186000F781E02D4B835C8369837A830995D501E9
:10187000ED91FC914B815C81C40ED51EB1E0CB1A79
:10188000D1080088F189E02D7801860169817A818B
:101890009B01C5010995D501ED91FC910288F38961
:1018A000E02DC5010F900F900F900F90DF91CF9119
:1018B0001F910F91FF90EF90DF90CF90BF90AF906E
:1018C00009940895EF92FF920F931F93DC01ED911D
:1018D000FC91048CF58DE02D09951F910F91FF90DF
:1018E000EF9008950F931F93DC01ED91FC91028C12
:1018F000F38DE02D09951F910F9108950F931F937C
:10190000DC01ED91FC91008CF18DE02D09951F918A
:101910000F910895DC01ED91FC910480F581E02D9B
:10192000099408952F923F924F925F926F927F9207
:101930008F929F92AF92BF92CF92DF92EF92FF92DF
:101940000F931F93CF93DF9300D01F92CDB7DEB7D5
:101950004C017B836A836A01590117019801241B9A
:10196000350B37FF03C0319521953109C5014A81F7
:101970005B81841B950B97FF03C09195819591091D
:1019800051E059838217930714F019820BC09A2DE6
:101990008B2D5801092F182F9A818B81DB82CA82E7
:1019A000C92ED82E8A819B81A816B9065CF49C2D7D
:1019B0008D2D6801092F182F9A818B81BB82AA82F5
:1019C000A92EB82E2501AA81BB814A1A5B0A3801CB
:1019D0006C187D0877FE03C07194619471087201E0
:1019E00057FE03C0BFEFEB1AFB0AF594E794C0164D
:1019F000D1061CF00FEF1FEF1FC001E010E01CC06C
:101A0000D401ED91FC91B9810084F185E02D910123
:101A1000BB23C1F04A815B81B601C4010995E61878
:101A2000F708F7FE04C0C00ED11EE40CF51CEA81D5
:101A3000FB813196FB83EA834A815B81A416B5065C
:101A4000FCF604C0A6016A817B81E7CF0F900F905E
:101A50000F90DF91CF911F910F91FF90EF90DF904A
:101A6000CF90BF90AF909F908F907F906F905F903E
:101A70004F903F902F90089585ED8093BC0080910A
:101A8000BC0084FDFCCF10928D02089540910704A4
:101A9000262F30E0240F311D21323105DCF4209156
:101AA0008D022430C9F4FC0180E090E0861758F4E0
:101AB000309107042191DC01AB51BC4FA30FB11D44
:101AC0002C930196F3CF80910704680F609307046D
:101AD00080E0089581E0089582E008950895E091FE
:101AE000460280914502E81730F4F0E0E95BFD4FD3
:101AF000808190E008958FEF9FEF089590914602C6
:101B000080914502981750F4E92FF0E0E95BFD4F12
:101B1000208130E09F5F9093460202C02FEF3FEF9D
:101B2000C90108958091450290E020914602821BF0
:101B300091090895CF92DF92EF92FF920F931F9336
:101B4000CF93DF937C01262F972F8A0180918E02FD
:101B5000882391F0C62FD72F6E01C40ED51ECC1549
:101B6000DD0571F06991D701ED91FC910190F08153
:101B7000E02DC7010995F3CF642F822F0E94460DF7
:101B8000C801DF91CF911F910F91FF90EF90DF90EF
:101B9000CF900895CF93DF931F92CDB7DEB76983BF
:101BA00020918E022223D1F02091B002203240F009
:101BB00021E030E0FC013383228380E090E015C017
:101BC00080918F02E82FF0E0E057FD4F99819083DC
:101BD0008F5F80938F028093B00205C061E0CE01D9
:101BE00001960E94460D81E090E00F90DF91CF9129
:101BF0000895CF93C82F682F81EB92E00E942B0AA3
:101C00008C2FCC0F990BCF9108952F923F924F922A
:101C10005F926F927F928F929F92AF92BF92CF927C
:101C2000DF92EF92FF920F931F93CF93DF93CDB785
:101C3000DEB76C970FB6F894DEBF0FBECDBF9C8F9A
:101C40008B8F5B011A011F830E833701C982DC0170
:101C500058964D915C9159974115510509F0E5C091
:101C600018968D919C911997681779070CF0CAC145
:101C70001A968D919C911B97281639060CF0C2C1BB
:101C80008C2C912CFB0136E0C39EE00DF11D11243C
:101C9000FB87EA871E161F060CF0B4C1C40133E0AF
:101CA000880F991F3A95E1F79D878C87820D931DC8
:101CB000181619060CF0A6C157968C91811103C015
:101CC000203B08F02F5FAB8DBC8DED91FC911197FF
:101CD0000680F781E02DCD012A8F09952A8DB5E088
:101CE0002B9F90011124F5013596FF87EE87BB826B
:101CF000AA822501A9014A195B09598B488BC101A8
:101D000008969B8B8A8BE889F989E40DF51DE254CE
:101D1000FF4F9491988761013D822C82A885A0FF96
:101D200013C0AB8DBC8DED91FC91B981B13031F414
:101D30000084F185E02D2E813F8116C00284F38559
:101D4000E02DEE80FF801AC0EE81FF816E167F06C7
:101D5000F1F0AB8DBC8DED91FC91B981B13051F4B6
:101D60000084F185E02D9301A601B2018B8D9C8D3D
:101D700009950DC00284F385E02D7301840194015F
:101D80004C815D816A817B818B8D9C8D0995E88575
:101D9000E695E887FFEFCF1ADF0A2C813D81280DF9
:101DA000391D3D832C834A895B89C416D50609F009
:101DB000B5CF5FEF451A550A8A819B81880D991D21
:101DC0009B838A83AE85BF854A165B0609F09BCF4D
:101DD000EE81FF816E167F0609F4F2C0EB8DFC8D5B
:101DE000A081B181F981F13079F4B5016B5F7F4F4A
:101DF0001C96ED91FC911D97830128E030E0A10134
:101E00008B8D9C8D0995DCC06A857B856819790965
:101E10001A96ED91FC911B9773010C851D85940119
:101E2000A1018B8D9C8D0995CBC0FA0134969491BC
:101E3000329765917491291BCB01B7E02B9F800DE0
:101E4000911D1124FA01259134913B8B2A8BFC01C1
:101E5000459154915B834A83FC013296C49031963C
:101E600054915E87329614913196D4908981823054
:101E700058F0612E012E000C7708AD2D0D2C000CB2
:101E8000BB0BB987A88704C019861886612C712CF2
:101E9000AB8DBC8DED91FC9111970680F781E02D03
:101EA000CD010995B9818B2E912C689CC001699C4C
:101EB000900D789C900D1124FC01EA0DFB1DFD870F
:101EC000EC871C82712C612CE12F110FFF0B950107
:101ED0002E0F3F1F3B872A87AC0CB11CA5014E0F6C
:101EE0005F1F5F8B4E8BC1018D0D911DD7FC9A95A5
:101EF000998F888F4E85641608F062C0862D90E019
:101F000048855985480F591F489D9001499D300DBE
:101F1000589D300D1124D901A20DB31DB98BA88B8A
:101F2000AA84BB844C845D84DC80BA85DB1AE88D8E
:101F3000F98DE80FF91FFD8BEC8B8D2D8A0D2E8905
:101F40003F89A216B306B9F1877061F48A819B813B
:101F50000196EA89FB89AA81BB81EA0FFB1F749075
:101F60009B838A8377FE20C0AB8DBC8DED91FC9165
:101F7000B981B13061F40084F185E02D2E813F817B
:101F80004C895D89B5018B8D9C8D09950DC00284AE
:101F9000F385E02DEE80FF80840194014889598902
:101FA000B2018B8D9C8D0995770CEFEFAE1ABE0AAE
:101FB000480C591CC2CF3C813C0D3C8363949ACFA2
:101FC000AB8DBC8DED91FC9111970288F389E02DCA
:101FD000CD016C960FB6F894DEBF0FBECDBFDF917A
:101FE000CF911F910F91FF90EF90DF90CF90BF9016
:101FF000AF909F908F907F906F905F904F903F90A9
:102000002F9009946C960FB6F894DEBF0FBECDBF2B
:10201000DF91CF911F910F91FF90EF90DF90CF90C4
:10202000BF90AF909F908F907F906F905F904F90F8
:102030003F902F9008951F920F920FB60F92112488
:102040002F933F934F935F936F937F938F939F93C0
:10205000AF93BF93EF93FF938091B900887F803651
:1020600009F49CC068F5883209F45BC090F48031B3
:1020700009F454C038F4882309F4F6C0883009F410
:102080004DC0F6C0883109F44CC0803209F45DC0FF
:10209000EFC0803409F468C048F4803309F455C0B7
:1020A000883309F0E5C080938B02D8C0803509F4ED
:1020B0004FC0883509F45DC0883409F0D9C0D6C056
:1020C000883909F4C7C0A8F4883709F467C038F420
:1020D000883609F463C0803709F460C0C9C0883805
:1020E00009F4B8C0803909F45FC0803809F0C0C075
:1020F0005BC0803B09F486C038F4803A09F466C0BE
:10210000883A09F47FC0B4C0803C09F4A7C0883C79
:1021100009F4A4C0883B09F48AC0AAC0809168026F
:1021200010C090918A0280918902981770F5E09111
:102130008A0281E08E0F80938A02F0E0E759FD4F1A
:1021400080818093BB0085EC86C080938B028EC01B
:10215000E0918A0281E08E0F80938A028091BB0019
:10216000F0E0E759FD4F808390918A0280918902C7
:102170006EC0E0918A0281E08E0F80938A02809186
:10218000BB00F0E0E759FD4F808380918C02811104
:102190006DC081E08093670284EA61C083E0809330
:1021A0008D0210922B04CFCF80912B04803208F047
:1021B00051C0E0912B0481E08E0F80932B0480911D
:1021C000BB00F0E0E55FFB4F8083BDCF85EC8093E3
:1021D000BC0010928D0280912B04803230F4E0918B
:1021E0002B04F0E0E55FFB4F108260912B0470E060
:1021F000E0910904F0910A048BE094E009951092B3
:102200002B0436C084E080938D0210920804109253
:102210000704E0910504F0910604099580910704F4
:10222000811105C081E0809307041092E503E091DD
:10223000080481E08E0F80930804F0E0EB51FC4F1E
:1022400080818093BB0090910804809107049817C7
:1022500008F479CF85E88093BC000AC085EC8093B0
:10226000BC0010928D0204C010928B020E943C0DA3
:10227000FF91EF91BF91AF919F918F917F916F915E
:102280005F914F913F912F910F900FBE0F901F9034
:10229000189510928D0281E080938C021092670253
:1022A00061E082E10E94E91461E083E10E94E914A7
:1022B000E9EBF0E080818E7F808380818D7F808359
:1022C00088E48093B80085E48093BC000895CF92A1
:1022D000EF92FF920F931F93FC010130110531F033
:1022E0000230110561F0012B31F51DC0DC010D90AC
:1022F0000020E9F71197A81BB90B83E008C0DC01A7
:102300000D900020E9F71197A81BB90B86E0289FD4
:10231000800111240A9FC0010B9F900D1A9F900D00
:102320001124681B790B7093B9036093B803509321
:10233000BB034093BA03211101C021E02093C003E5
:10234000CC2049F0F092BF03E092BE03F092BD03AF
:10235000E092BC0308C0F092BD03E092BC0310926F
:10236000BF031092BE03309791F0DF010D90002063
:10237000E9F71197AD014E1B5F0BBF018CEA93E0AB
:102380001F910F91FF90EF90CF900C9475051F91C6
:102390000F91FF90EF90CF9008952091E20330913C
:1023A000E3030097C9F1211546E03407C9F044F46E
:1023B000211542E03407D1F021153440A1F01BC0B3
:1023C000211548E0340739F021154AE0340799F423
:1023D0000197B1F41DC00197B1F420E03AE018C0B4
:1023E000019731F40DC0019741F40DC0019771F4CC
:1023F00020E034E00DC0019749F420E032E008C04D
:1024000020E038E005C020E036E002C020E030E007
:102410003093E3032093E203211586E03807D1F0DF
:1024200064F4211582E03807D1F021153440E1F43D
:102430006FE672E183E898E30895211588E0380794
:1024400021F021153A40A9F00FC06FE672E183E850
:1024500097E308956FE672E183E098E308956FE6ED
:1024600072E183E099E3089566EA7BE984E499E305
:1024700008956FE672E183E097E30895833081F079
:1024800028F4813099F08230A1F008958730A9F0C6
:102490008830B9F08430D1F4809180008F7D03C002
:1024A000809180008F7780938000089584B58F7726
:1024B00002C084B58F7D84BD08958091B0008F7770
:1024C00003C08091B0008F7D8093B00008953FB726
:1024D000F89480912D0490912E04A0912F04B09136
:1024E000300426B5A89B05C02F3F19F00196A11D09
:1024F000B11D3FBFBA2FA92F982F8827820F911D9A
:10250000A11DB11DBC01CD0142E0660F771F881FE0
:10251000991F4A95D1F70895CF92DF92EF92FF92DB
:102520000F931F93CF93DF9300D000D000D0CDB78F
:10253000DEB76C01DC01ED91FC910680F781E02DA6
:102540002D833E834B835C8369837A830995D6010F
:10255000ED91FC910284F385E02D2D813E814B812C
:102560005C8169817A81C6010995D601ED91FC9162
:102570000288F389E02DC60126960FB6F894DEBFD7
:102580000FBECDBFDF91CF911F910F91FF90EF90C4
:10259000DF90CF900994EF92FF920F931F93CF9308
:1025A000DF9300D000D000D0CDB7DEB77C01DC01D6
:1025B000ED91FC910680F781E02D2D833E834B83C6
:1025C0005C8369837A830995D701ED91FC91068438
:1025D000F785E02D2D813E814B815C8169817A8177
:1025E000C7010995D701ED91FC910288F389E02D8F
:1025F000C70126960FB6F894DEBF0FBECDBFDF91A0
:10260000CF911F910F91FF90EF900994EF92FF925D
:102610000F931F93CF93DF9300D000D000D0CDB79E
:10262000DEB77C01DC01ED91FC910680F781E02DA5
:102630002D833E834B835C8369837A830995D7011D
:10264000ED91FC910484F585E02D2D813E814B8137
:102650005C8169817A81C7010995D701ED91FC916F
:102660000288F389E02DC70126960FB6F894DEBFE5
:102670000FBECDBFDF91CF911F910F91FF90EF90D3
:1026800009940F931F93CF93DF9300D000D000D015
:10269000CDB7DEB78C01DC01ED91FC910680F781AE
:1026A000E02D2D833E834B835C8369837A83099578
:1026B000D801ED91FC910084F185E02D2D813E81C2
:1026C0004B815C8169817A81C8010995D801ED91BE
:1026D000FC910288F389E02DC80126960FB6F89484
:1026E000DEBF0FBECDBFDF91CF911F910F91099437
:1026F000EF92FF920F931F93DC01ED91FC91028406
:10270000F385E02D780101E010E009951F910F910C
:10271000FF90EF900895EF92FF920F931F93DC01CB
:10272000ED91FC910284F385E02D7801890121E08F
:1027300030E009951F910F91FF90EF900895DC0113
:102740009C96ED91FC919D979081D1968C91892BCF
:10275000808308950895FC016370658B8481958161
:1027600026813781613039F0633029F09187808785
:10277000338722870895318720879387828708953A
:10278000FC0181A187FF1EC0428D538D648D758D24
:1027900020E080E092E1AAE7B0E0481759076A0715
:1027A0007B0740F4B695A795979587952F5F2630C0
:1027B000A1F727E091E09227892F806A8695917092
:1027C0008CBD9DBDA4A5B5A59C9181A980958923AB
:1027D0008C930895AF92BF92CF92EF92FF920F9396
:1027E0001F93CF93DF93EC01262F888D998D00974F
:1027F00009F040C06A3059F41D861C862C898E85EC
:102800009F8538E0239F800D911D112441C06D30BC
:1028100009F4AAC08E898823C1F03C898C859D85E6
:1028200046E0349F800D911D112448855985481735
:1028300059075CF41D861C868E859F8548E0349F71
:10284000800D911D11249F878E87EA88FB88088957
:1028500019894E855F856C857D85CC88CE010E9467
:10286000050E2C898C859D8536E0239F800D911D5A
:10287000112442C06A3079F41D861C862C89FC0123
:102880003696E4918E859F852E9F800D911D112493
:102890009F878E8769C06D3009F466C0FC0134964D
:1028A0003491631708F460C03196E491E61708F498
:1028B0005BC0FC013296A590B490462F50E0431BBC
:1028C000510937E0349FB001359F700D1124A60ED9
:1028D000B71EF501329634913196E491332311F00D
:1028E000E1110DC0F5013496E4912C898C859D850C
:1028F000E29F800D911D11249D878C8735C0F501C5
:10290000359644915E89552311F16C89E32FF0E0EF
:10291000E40FF11D47FDFA956E9FD0016F9FB00D3A
:1029200011244C855D854A0F5B1FE885F985E41706
:10293000F5076CF41D861C86FC013696E4918E85A5
:102940009F856E9F800D911D11249F878E87EA8839
:10295000FB88088919894E855F856C857D85CC88C3
:10296000CE010E94050EBECF81E090E0DF91CF91B5
:102970001F910F91FF90EF90CF90BF90AF9008956F
:10298000CF93DF93282F30E0F901EE58FF4F849169
:10299000F901E457FF4FD491F901E655FF4FC49177
:1029A000CC2391F081110E943E12EC2FF0E0EE0F4B
:1029B000FF1FE254FA4FA591B491EC91ED2381E011
:1029C00090E021F480E002C080E090E0DF91CF91C0
:1029D00008951F93CF93DF93282F30E0F901EE582D
:1029E000FF4F8491F901E457FF4FD491F901E65567
:1029F000FF4FC491CC23C9F0162F81110E943E12C3
:102A0000EC2FF0E0EE0FFF1FE056FF4FA591B491C1
:102A10008FB7F894111105C09C91ED2FE095E92333
:102A200002C0EC91ED2BEC938FBFDF91CF911F9102
:102A30000895CF93DF9390E0FC01E457FF4F24917A
:102A4000FC01E655FF4F8491882361F190E0880FE7
:102A5000991FFC01E859FF4FC591D491FC01E05644
:102A6000FF4FA591B491611109C09FB7F894888177
:102A7000209582238883EC912E230BC0623061F471
:102A80009FB7F8943881822F809583238883EC91B7
:102A90002E2B2C939FBF06C08FB7F894E8812E2B66
:102AA00028838FBFDF91CF9108958F929F92AF922D
:102AB000BF92CF92DF92EF92FF926B017C010E9456
:102AC00067124B015C01C114D104E104F104F1F07F
:102AD0000E946712DC01CB0188199909AA09BB0978
:102AE000883E9340A105B10570F321E0C21AD108D8
:102AF000E108F10888EE880E83E0981EA11CB11C45
:102B0000C114D104E104F10419F7DDCFFF90EF9077
:102B1000DF90CF90BF90AF909F908F9008951F92BD
:102B20000F920FB60F9211242F933F938F939F9381
:102B3000AF93BF9380915A0390915B03A0915C0384
:102B4000B0915D0330912C0423E0230F2D3720F446
:102B50000196A11DB11D05C026E8230F0296A11DF7
:102B6000B11D20932C0480935A0390935B03A09390
:102B70005C03B0935D0380912D0490912E04A0918D
:102B80002F04B09130040196A11DB11D80932D0436
:102B900090932E04A0932F04B0933004BF91AF9173
:102BA0009F918F913F912F910F900FBE0F901F908B
:102BB00018950F931F93FC018FB7F89440915A0317
:102BC00050915B0360915C0370915D038FBF048142
:102BD00015812681378180859185A285B385401B2B
:102BE000510B620B730B481759076A077B0754F0A8
:102BF000800F911FA21FB31F84839583A683B78381
:102C000081E001C0848514861F910F910895FC0115
:102C100081A187FF05C06EBD0DB407FEFDCF0895ED
:102C200028E030E090E8A4A1B5A186A5492F46236D
:102C300019F04C91842B03C04C91809584238C9384
:102C4000A0A5B1A54C9180A9809584238C93A0A5C3
:102C5000B1A54C9180A9842B8C9396952150310974
:102C600011F70895CF93DF93EC01EAA5FBA59081BE
:102C70008AA9809589238083CE010E940716EAA540
:102C8000FBA590818AA9892B8083DF91CF9108953C
:102C90008F929F92AF92BF92CF92DF92EF92FF926C
:102CA0000F931F93CF93DF93EC01490181E0881AC2
:102CB0009108860E971EC401A0E0B0E04B01A12C44
:102CC000B12C540199248824882A992AAA2ABB2A3B
:102CD000680181E0C81AD108C40ED51EC601A0E063
:102CE000B0E06A01E12CF12C7601DD24CC24C82A65
:102CF000D92AEA2AFB2A6AE2CE010E94321629A1C9
:102D00006B2D77278827992727FF18C06EBD0DB434
:102D100007FEFDCFC501AA27BB278EBD0DB407FE58
:102D2000FDCFBB27AB2D9A2D892D8EBD0DB407FE8F
:102D3000FDCF8EBC0DB407FEFDCF14C0CE010E94A6
:102D40000716B50188279927CE010E9407169927F3
:102D50008B2D7A2D692DCE010E940716682DCE018C
:102D60000E9407166BE2CE010E94321629A16F2D38
:102D700077278827992727FF18C06EBD0DB407FE57
:102D8000FDCFC701AA27BB278EBD0DB407FEFDCF1F
:102D9000BB27AF2D9E2D8D2D8EBD0DB407FEFDCF13
:102DA000CEBC0DB407FEFDCF14C0CE010E940716A5
:102DB000B70188279927CE010E94071699278F2DE2
:102DC0007E2D6D2DCE010E9407166C2DCE010E9426
:102DD00007166CE2CE01DF91CF911F910F91FF900A
:102DE000EF90DF90CF90BF90AF909F908F900C941A
:102DF00032164F925F926F927F928F929F92AF9214
:102E0000BF92CF92DF92EF92FF920F931F93CF93D7
:102E1000DF935C01FB01E9014701DC0118962D916C
:102E20003C911997621773070CF063C01A968D9145
:102E30009C911B97481759070CF05BC06B01CC0E97
:102E4000DD1ED60111977A01E00EF11EB701615027
:102E50007109B7FD4EC077FD4CC0F7FF03C0E60116
:102E6000E0E0F0E057FF03C0870140E050E0A21728
:102E7000B3071CF0E901CE1BDF0B681779071CF0C4
:102E80008C01041B150B9E01D8010E9482216B014D
:102E90007C01BF01C5010E94481626013701F501DA
:102EA00081A187FF13C0411451046104710409F129
:102EB0009EBC0DB407FEFDCF8EBC0DB407FEFDCF4A
:102EC000F1E04F1A510861087108EDCF4114510427
:102ED0006104710471F0692DC5010E940716682D07
:102EE000C5010E94071681E0481A5108610871085F
:102EF000EDCFDF91CF911F910F91FF90EF90DF9079
:102F0000CF90BF90AF909F908F907F906F905F9089
:102F10004F900895EF92FF920F931F93CF93DF93FB
:102F2000EC01CB0177FD30C068857985861797075E
:102F30005CF557FD29C06A857B854617570724F540
:102F4000E32EF22EBC0101E010E021E030E0CE01E2
:102F50000E94481689A187FF09C0EEBC0DB407FE88
:102F6000FDCFFEBC0DB407FEFDCF0EC06E2DCE0111
:102F70000E9407166F2DCE01DF91CF911F910F9107
:102F8000FF90EF900C940716DF91CF911F910F9156
:102F9000FF90EF9008950F931F93CF93DF931F92AD
:102FA000CDB7DEB78C01DC01ED91FC910680F78195
:102FB000E02D698309956981611102C060E201C059
:102FC00061E2C8010E943216D801ED91FC9102889D
:102FD000F389E02DC8010F90DF91CF911F910F91E0
:102FE00009941F93CF93DF93EC0163706D8B623074
:102FF000C1F0633001F1613051F080EF90E09987CA
:10300000888780E491E09B878A8718E41DC080E46C
:1030100091E09987888780EF90E09B878A8718E204
:1030200013C080EF90E09987888780E491E09B87C8
:103030008A8718E809C080E491E09987888780EF43
:1030400090E09B878A8718EEE881F9810680F781F6
:10305000E02DCE01099566E3CE010E943216612F64
:10306000CE010E940716E881F9810288F389E02DDC
:10307000CE01DF91CF911F910994CF93DF93CDB70C
:10308000DEB7A0970FB6F894DEBF0FBECDBF789421
:1030900084B5826084BD84B5816084BD85B582605D
:1030A00085BD85B5816085BD80916E00816080930E
:1030B0006E00109281008091810082608093810077
:1030C0008091810081608093810080918000816087
:1030D000809380008091B10084608093B1008091E2
:1030E000B00081608093B00080917A00846080930A
:1030F0007A0080917A00826080937A0080917A00D1
:10310000816080937A0080917A00806880937A0051
:103110001092C10060E070E089EF9DE00E947F2482
:10312000109246021092450210928F021092B00245
:103130000E94491162E086E00E94191562E087E072
:103140000E941915109246021092450210928F02A9
:103150001092B0020E9449111092E3031092E20310
:1031600080E092E1AAE7B0E08093C6039093C703A2
:10317000A093C803B093C90361E08091CB030E9480
:10318000191560E08091CB030E94E91461E0809101
:10319000CA030E94191561E08091CA030E94E914D4
:1031A0008091CD0387FD1BC061E08091CE030E941A
:1031B000191560E08091CE030E94E91461E08091CE
:1031C000CD030E94191561E08091CD030E94E9149E
:1031D0008091CF0387FD03C060E00E9419158091A4
:1031E000CD0387FF33C01FB7F8948091400281114F
:1031F00027C0E4EBF0E08491E6E9F0E09491E82F59
:10320000F0E0EE0FFF1FE859FF4FA591B491EC914C
:10321000E92321F461E08AE00E94E91461E08AE098
:103220000E9419158CB580618CBD8CB580648CBDF5
:1032300061E08DE00E94191561E08BE00E94191594
:10324000809140028F5F809340021FBF8091CC032A
:1032500087FD24C061E00E94191561E08091CC03D4
:103260000E94E91464E670E080E090E00E94551549
:1032700060E08091CC030E94E91464E670E080E095
:1032800090E00E94551561E08091CC030E94E91402
:1032900068EC70E080E090E00E9455158CEA93E0C5
:1032A0000E94C0136FEE8CEA93E00E94321663E036
:1032B0008CEA93E00E94071660E88CEA93E00E9493
:1032C000071662E08CEA93E00E9407166FEC8CEA26
:1032D00093E00E94321660E08CEA93E00E940716A9
:1032E00061EC8CEA93E00E94071660E38CEA93E0BD
:1032F0000E9407166DEE8CEA93E00E94321664E697
:103300008CEA93E00E94071663E08CEA93E00E9447
:10331000071662E18CEA93E00E94071661E88CEAE6
:1033200093E00E94071668EE8CEA93E00E94321642
:1033300065E88CEA93E00E94071660E08CEA93E06F
:103340000E94071668E78CEA93E00E9407166BEC70
:103350008CEA93E00E94321669E38CEA93E00E94C3
:1033600007166CE28CEA93E00E94071660E08CEA94
:1033700093E00E94071664E38CEA93E00E9407162C
:1033800062E08CEA93E00E94071667EF8CEA93E014
:103390000E94321660E28CEA93E00E9407166AEE01
:1033A0008CEA93E00E94321660E08CEA93E00E947F
:1033B000071660E08CEA93E00E94071660EC8CEA46
:1033C00093E00E94321663E28CEA93E00E940716B3
:1033D00061EC8CEA93E00E94321660E18CEA93E0A3
:1033E0000E94071665EC8CEA93E00E9432166EE3A9
:1033F0008CEA93E00E94071668E28CEA93E00E9450
:10340000071667EC8CEA93E00E94321666E88CEAB5
:1034100093E00E94071666E38CEA93E00E9432165E
:1034200068E48CEA93E00E94071667E38CEA93E075
:103430000E9432168091CD0387FF09C01EBC0DB4D7
:1034400007FEFDCF1EBC0DB407FEFDCF0AC060E035
:103450008CEA93E00E94071660E08CEA93E00E94F9
:1034600007166AE38CEA93E00E94321665E58CEA5F
:1034700093E00E94071661EB8CEA93E00E943216FB
:1034800060E08CEA93E00E94071668E18CEA93E022
:103490000E94071666EB8CEA93E00E94321668E001
:1034A0008CEA93E00E94071662E88CEA93E00E949F
:1034B000071667E28CEA93E00E94071662EF8CEA37
:1034C00093E00E94321660E08CEA93E00E940716B7
:1034D00066E28CEA93E00E94321661E08CEA93E0A7
:1034E0000E94071660EE8CEA93E00E9432166FE0AD
:1034F0008CEA93E00E94071661E38CEA93E00E9455
:1035000007166BE28CEA93E00E9407166CE08CEAE7
:1035100093E00E9407166EE08CEA93E00E94071683
:1035200068E08CEA93E00E9407166EE48CEA93E070
:103530000E94071661EF8CEA93E00E94071667E38A
:103540008CEA93E00E94071667E08CEA93E00E9401
:10355000071660E18CEA93E00E94071663E08CEAAC
:1035600093E00E9407166EE08CEA93E00E94071633
:1035700069E08CEA93E00E94071660E08CEA93E031
:103580000E94071661EE8CEA93E00E94321660E01A
:103590008CEA93E00E9407166EE08CEA93E00E94AA
:1035A000071664E18CEA93E00E94071663E08CEA58
:1035B00093E00E94071661E18CEA93E00E940716EF
:1035C00067E08CEA93E00E94071661E38CEA93E0DF
:1035D0000E94071661EC8CEA93E00E94071668E4EB
:1035E0008CEA93E00E94071668E08CEA93E00E9460
:1035F00007166FE08CEA93E00E9407166CE08CEAF5
:1036000093E00E94071661E38CEA93E00E9407169C
:1036100066E38CEA93E00E9407166FE08CEA93E081
:103620000E94071661E18CEA93E00E94321668E777
:1036300070E080E090E00E94551569E28CEA93E02A
:103640000E94321668E770E080E090E00E94551515
:103650008CEA93E00E949F1380EF90E09093B50373
:103660008093B40380E491E09093B7038093B60312
:1036700063E08CEA93E00E94F11760E070E08CEA6E
:1036800093E00E946A0B1092C20361E083E00E9403
:10369000191561E083E00E941915E5E7F0E0E49177
:1036A000E33019F150F4E130D1F0E230E1F584B5C6
:1036B000806284BD8CE488BD3AC0E73011F1E83007
:1036C00049F1E43081F58091800080628093800030
:1036D0008CE490E090938B0080938A0028C084B59E
:1036E000806884BD8CE487BD22C0809180008068A2
:1036F000809380008CE490E0909389008093880010
:1037000016C08091B00080688093B0008CE48093F4
:10371000B3000DC08091B00080628093B0008CE453
:103720008093B40004C060E083E00E94E91482E06A
:103730008093C00380EE9FEF9093BF038093BE03FE
:103740009093BD038093BC038AE090E09093B9030B
:103750008093B80384E190E09093BB038093BA0315
:10376000C12CBFE1EB2EB8EFFB2E00E010E023E010
:1037700044E150E06AE070E08EE491E00E9467115D
:1037800023E042E350E06AE070E08DE591E00E94C2
:103790006711EE24EA9487E0F82E22E044E650E038
:1037A0006AE070E08EE691E00E94671190EEE92EEB
:1037B00097E0F92E22E04CE850E06AE070E086E8FD
:1037C00091E00E94671120EEE22EFF24FA9422E09D
:1037D00045EA50E06AE070E08AE991E00E946711F2
:1037E00022E04EEB50E06AE070E08DEA91E00E944A
:1037F000671122E047ED50E06AE070E085EC91E06F
:103800000E94671160ED77E080E090E00E9455151E
:1038100060E070E08CEA93E00E946A0BCE010196B2
:103820001C0182E893E00E94D915882309F4EFC0B7
:1038300080E00E94BB058C0197FF02C000E010E011
:1038400080E090E00E94CD116B017C01B801012E57
:10385000000C880B990B0E94DD229B01AC01C70173
:10386000B6010E9492236B017C0160937A037093EE
:103870007B0380937C0390937D03809076039090EC
:103880007703A0907803B09079039B01AC01C50148
:10389000B4010E9492232B013C01A501940160E038
:1038A00070E088EC92E40E94C82120917E03309160
:1038B0007F0340918003509181030E9492239B01DA
:1038C000AC01C301B2010E94C92120E030E048EC04
:1038D00052E40E943A2260937E0370937F038093A8
:1038E000800390938103C0926E03D0926F03E092A5
:1038F0007003F092710380906A0390906B03A09024
:103900006C03B0906D03A7019601C501B4010E943C
:1039100092232B013C01A501940160E070E088EC4A
:1039200092E40E94C8212091720330917303409168
:103930007403509175030E9492239B01AC01C30153
:10394000B2010E94C92120E030E048EC52E40E941C
:103950003A229B01AC0160937203709373038093CE
:10396000740390937503C701B6010E94C8219B019F
:10397000AC010E9492239B01AC016093620370939F
:1039800063038093640390936503C0905E03D090BB
:103990005F03E0906003F0906103C701B6010E94ED
:1039A00092234B015C01A701960160E070E088EC76
:1039B00092E40E94C82120916603309167034091F0
:1039C0006803509169030E9492239B01AC01C501D9
:1039D000B4010E94C92120E030E048EC52E40E948A
:1039E0003A22609366037093670380936803909311
:1039F0006903011590E319071CF481E090E005C00C
:103A00000130104524F082E090E00E94CD1180E961
:103A100093E00E94D915882309F448C1C0907E0321
:103A2000D0907F03E0908003F090810320E030E0AD
:103A300040EA50E4C701B6010E948D231816E4F451
:103A4000C12CFFE1EF2EF8EFFF2E01E010E02AE09D
:103A500044E150E060EA70E089ED91E00E94671176
:103A6000A0EEEA2EA7E0FA2E24E049E650E060EA54
:103A700070E08FED91E018C12FE632E143E85AE3A0
:103A8000C701B6010E94352287FF19C0C12C70EE14
:103A9000E72E77E0F72E01E010E024E049E650E061
:103AA00060EA70E08AEE91E00E946711812CE4E206
:103AB0009E2EE4E7AE2EE9E4BE2E18A253C020E00D
:103AC00030E040E85FE3C701B6010E94352287FF7E
:103AD00031C02AE037ED43E25CE3C701B6010E9442
:103AE000352287FD0EC02DEC3CEC4CEC5DE3C701AC
:103AF000B6010E943522881F8827881F8F5F88A300
:103B000002C0B3E0B8A3C12C50EEE52E57E0F52E6D
:103B100001E010E024E049E650E060EA70E085EF63
:103B200091E00E946711812C912C6AE7A62E64E433
:103B3000B62E18C0C12C30EEE32E37E0F32E01E094
:103B400010E024E049E650E060EA70E080E092E0B6
:103B50000E946711812C912C40E8A42E4FE3B42ED3
:103B600023E028A320917E0330917F0340918003BE
:103B700050918103C501B4010E949223910148A193
:103B80000E94A005C12C2FE1E22E28EFF22E01E0C9
:103B900010E02AE044E150E060EA70E00E94671122
:103BA0006091660370916703809168039091690347
:103BB0000E9405246B017C014090720350907303B6
:103BC000609074037090750320E030E040E251E4AF
:103BD000C301B2010E943A229B01AC01C701B601A8
:103BE0000E948D231816C4F4C12CEE24EA9407E039
:103BF000F02E02E010E023E042E950E066E371E0DD
:103C000089ED91E00E94671123E04DEA50E066E300
:103C100071E089ED91E02FC0A5019401C301B201CB
:103C20000E949223910148A10E94A005C12CEE247C
:103C3000EA9417E0F12E02E010E023E042E950E0C0
:103C400066E371E00E9467116091660370916703FB
:103C500080916803909169030E940524A501940155
:103C60000E949223910148A10E94A00523E04DEA01
:103C700050E066E371E00E946711C12CEE24EA94E3
:103C8000B7E0FB2E00E010E023E042E950E06AE0FC
:103C900070E08BE092E00E94671123E04DEA50E073
:103CA0006AE070E086E192E00E9467118EE993E09D
:103CB0000E94D915882309F48EC10091E203109166
:103CC000E3031092E3031092E20382E00E94BB053B
:103CD000BC0180E090E00E94DB2226EA3BE944E45C
:103CE00059E30E9492236B017C016093410270931F
:103CF000420280934302909344021093E3030093A3
:103D0000E2032AE939E949E150E40E94352287FDBE
:103D100022C026E636E646E850E4C701B6010E9416
:103D20008D2387FF1AC02AE939E949E150E4C70128
:103D3000B6010E94C82124E636E646EE5FE30E9403
:103D40003A2220E030E048E453E40E9492230E94AB
:103D5000AC22962E04C0912C02C0A8EC9A2E86E0CC
:103D60000E94C01411E0892B09F010E087E00E9446
:103D7000C01421E0892B09F020E0112311F0222347
:103D800079F08FEF890D873C78F0111114C0222350
:103D900071F087EC891578F4F3E0CF2ED12C0EC0AA
:103DA000E2E0CE2ED12C0AC0C12CD12C07C074E089
:103DB000C72ED12C03C0CC24C394D12CA3E99A9E46
:103DC000C001112468EC70E00E944F215B01B1E05A
:103DD000CB16D10419F080EE97E002C080E098EF96
:103DE0007C0104E110E0950140ED50E06CE970E0E9
:103DF0008CEA93E00E948C1223E930E02A193B09F7
:103E0000B50164567F4F40EEE42EFF24FA9440ED56
:103E100050E08CEA93E00E948C12E091AC03F091A8
:103E2000AD030680F781E02D8CEA93E00995E091DF
:103E3000AC03F091AD030284F385E02DEE24EA9407
:103E4000FE2C0AE010E023E030E045ED50E061E3B5
:103E500071E08CEA93E0099525E030E041E067ED00
:103E600070E083E391E00E943D0925E030E042E00C
:103E700067ED70E081E391E00E943D09E091AC03C1
:103E8000F091AD030288F389E02D8CEA93E0099567
:103E900003E010E028E130E047E950E06EEC70E02C
:103EA0008AE990E00E94750802E010E026E130E027
:103EB00045E950E06FEC70E08BE990E00E947508F6
:103EC00022E0C216D10449F194F4CA94CD2809F035
:103ED00053C0CC24C394E12CF12C01E010E022E08B
:103EE00043ED50E065EE70E081E292E042C0A3E075
:103EF000CA16D10489F1B4E0CB16D104E9F5CC247B
:103F0000C394E12CF12C01E010E022E043ED50E0FD
:103F100065EE70E08CE292E02CC09DEDE92EF12C74
:103F200003ED10E02BED30E046EE50E061ED70E087
:103F300086EE90E00E94740627EDE22EF12C07EF4A
:103F400010E029ED30E044EE50E063EE70E084EEE6
:103F500090E00E9474062FC0CC24C394E12CF12C75
:103F600001E010E022E043ED50E065EE70E084E215
:103F700092E00E9467111FC096941F929F92A6E83C
:103F8000B0E0BF93AF933F922F920E94CA24CC24FB
:103F9000C394E12CF12C01E010E022E043ED50E06D
:103FA00065EE70E0C1010E9467110F900F900F90B5
:103FB0000F900F900F90C12C80EEE82EFF24FA9402
:103FC00000E010E023E040ED50E06AE070E087E3BD
:103FD00092E00E9467110E946B0523CC0F931F9300
:103FE000CF93E1EBF2E01382128248EE53E060E0FF
:103FF00070E044835583668377838AE091E0918300
:10400000808385EC90E09587848784EC90E09787A7
:10401000868780EC90E0918B808B81EC90E0938B95
:10402000828B82EC90E0958B848B86EC90E0978B72
:10403000868B118E128E138E148EEEE4F3E01382B3
:10404000128244835583668377838AE191E091836A
:104050008083EFEDF3E088E480831482138288E0AC
:1040600081831282ACEAB3E013961C921E921297DF
:1040700020EF30E015963C932E93149780E491E066
:1040800017969C938E93169719963C932E93189798
:104090001B969C938E931A9755961C9255971D9636
:1040A0001C921E921C971F961C921E921E9781E0D6
:1040B00054968C9354972FEF3FEF53963C932E9347
:1040C000529751963C932E93509756968C935697B1
:1040D00057961C92579759961C921E9258978AE2AF
:1040E00091E011969C938E9385E05E968C935E97FB
:1040F00082E05F968C935F9784E090968C93909784
:104100008FEF91968C93919792968C93929793962A
:104110008C9393975A961D921D921D921C925D97B7
:10412000EFEAF0E0E491F0E0EE0FFF1FE056FF4F02
:10413000859194919D969C938E939C97E1E9F0E0F4
:10414000E491D196EC93D197ECEAF0E0E491F0E0C1
:10415000EE0FFF1FE056FF4F859194919B969C9325
:104160008E939A97EEE8F0E0E491D296EC93D29792
:1041700099961C921E929897D0961C92D0979596DD
:104180001C921E9294979E961C929E9797961C92B4
:104190001E9296979F961C92E2E8F3E081E090E0F1
:1041A000A0E0B0E080839183A283B3830DE411E0AB
:1041B00020E030E000871187228733871586CFB74C
:1041C000F89400915A0310915B0320915C033091A5
:1041D0005D03CFBF048315832683378314868687C8
:1041E0009787A08BB18B04E110E020E030E0068BD4
:1041F000178B208F318F138ECFB7F89400915A030D
:1042000010915B0320915C0330915D03CFBF028B63
:10421000138B248B358B128E848F958FA68FB78F3F
:1042200044A355A366A377A311A62FB7F894809152
:104230005A0390915B03A0915C03B0915D032FBF83
:1042400080A391A3A2A3B3A310A6E6E7F3E080E0C6
:1042500090E0A0EAB2E480839183A283B3831086C6
:10426000118612861386EAE6F3E080E090E0A0E291
:10427000B1E480839183A283B38310861186128672
:104280001386EEE5F3E080839183A283B3831086E7
:10429000118612861386CF911F910F910895AA1B44
:1042A000BB1B51E107C0AA1FBB1FA617B70710F021
:1042B000A61BB70B881F991F5A95A9F78095909553
:1042C000BC01CD010895052E97FB1EF400940E94B9
:1042D0007A2157FD07D00E94A02107FC03D04EF49D
:1042E0000C947A2150954095309521953F4F4F4F32
:1042F0005F4F089590958095709561957F4F8F4F92
:104300009F4F08950E948A21332312F48A1B9B0B2E
:104310000C949B21A29FB001B39FC001A39F700D7D
:10432000811D1124911DB29F700D811D1124911DBD
:1043300008950E948A21B7FF0895821B930B089568
:10434000A1E21A2EAA1BBB1BFD010DC0AA1FBB1F99
:10435000EE1FFF1FA217B307E407F50720F0A21B0B
:10436000B30BE40BF50B661F771F881F991F1A9478
:1043700069F760957095809590959B01AC01BD01A2
:10438000CF010895EE0FFF1F0590F491E02D0994E1
:104390005058BB27AA270E94E0210C9453230E9467
:1043A000452338F00E944C2320F039F49F3F19F444
:1043B00026F40C9442230EF4E095E7FB0C943C2386
:1043C000E92F0E94642358F3BA1762077307840722
:1043D000950720F079F4A6F50C9486230EF4E09569
:1043E0000B2EBA2FA02D0B01B90190010C01CA01AF
:1043F000A0011124FF27591B99F0593F50F4503E5A
:1044000068F11A16F040A22F232F342F4427585F4B
:10441000F3CF469537952795A795F0405395C9F763
:104420007EF41F16BA0B620B730B840BBAF091501B
:10443000A1F0FF0FBB1F661F771F881FC2F70EC0BA
:10444000BA0F621F731F841F48F48795779567958D
:10445000B795F7959E3F08F0B0CF9395880F08F079
:104460009927EE0F9795879508950E94182308F4D1
:1044700081E008950E944E220C9453230E944C2305
:1044800058F00E94452340F029F45F3F29F00C9436
:104490003C2351110C9487230C9442230E946423E3
:1044A00068F39923B1F3552391F3951B550BBB2763
:1044B000AA2762177307840738F09F5F5F4F220FA8
:1044C000331F441FAA1FA9F335D00E2E3AF0E0E89F
:1044D00032D091505040E695001CCAF72BD0FE2FE9
:1044E00029D0660F771F881FBB1F2617370748077D
:1044F000AB07B0E809F0BB0B802DBF01FF27935835
:104500005F4F3AF09E3F510578F00C943C230C9499
:1045100087235F3FE4F3983ED4F3869577956795BC
:10452000B795F7959F5FC9F7880F911D9695879569
:1045300097F90895E1E0660F771F881FBB1F621788
:1045400073078407BA0720F0621B730B840BBA0B46
:10455000EE1F88F7E09508950E946C2388F09F571E
:1045600098F0B92F9927B751B0F0E1F0660F771F97
:10457000881F991F1AF0BA95C9F714C0B13091F08D
:104580000E948623B1E008950C948623672F782F2C
:104590008827B85F39F0B93FCCF386957795679552
:1045A000B395D9F73EF490958095709561957F4FBE
:1045B0008F4F9F4F0895E89409C097FB3EF4909564
:1045C0008095709561957F4F8F4F9F4F9923A9F0EC
:1045D000F92F96E9BB279395F6958795779567957B
:1045E000B795F111F8CFFAF4BB0F11F460FF1BC0BF
:1045F0006F5F7F4F8F4F9F4F16C0882311F096E952
:1046000011C0772321F09EE8872F762F05C06623FF
:1046100071F096E8862F70E060E02AF09A95660FB8
:10462000771F881FDAF7880F9695879597F9089571
:10463000990F0008550FAA0BE0E8FEEF16161706B3
:10464000E807F907C0F012161306E407F50798F01B
:10465000621B730B840B950B39F40A2661F0232B34
:10466000242B252B21F408950A2609F4A140A695B0
:104670008FEF811D811D089597F99F6780E870E095
:1046800060E008959FEF80EC089500240A941616C8
:10469000170618060906089500240A941216130630
:1046A000140605060895092E0394000C11F48823BE
:1046B00052F0BB0F40F4BF2B11F460FF04C06F5FDA
:1046C0007F4F8F4F9F4F089557FD9058440F551FB0
:1046D00059F05F3F71F04795880F97FB991F61F084
:1046E0009F3F79F087950895121613061406551FFB
:1046F000F2CF4695F1DF08C0161617061806991F67
:10470000F1CF86957105610508940895E894BB275B
:1047100066277727CB0197F908950E94182308F49C
:104720008FEF08950E94A5230C9453230E944523E4
:1047300038F00E944C2320F0952311F00C943C2378
:104740000C94422311240C9487230E94642370F359
:10475000959FC1F3950F50E0551F629FF001729F26
:10476000BB27F00DB11D639FAA27F00DB11DAA1F35
:10477000649F6627B00DA11D661F829F2227B00D82
:10478000A11D621F739FB00DA11D621F839FA00D0D
:10479000611D221F749F3327A00D611D231F849F5D
:1047A000600D211D822F762F6A2F11249F575040B4
:1047B0009AF0F1F088234AF0EE0FFF1FBB1F661F2F
:1047C000771F881F91505040A9F79E3F510580F0F8
:1047D0000C943C230C9487235F3FE4F3983ED4F37E
:1047E000869577956795B795F795E7959F5FC1F79C
:1047F000FE2B880F911D9695879597F9089519F4CA
:1048000016F40C9442230C9445240E946C23B8F3B4
:104810009923C9F3B6F39F57550B87FF0E94532482
:104820000024A0E640EA900180585695979528F418
:10483000805C660F771F881F20F026173707480710
:1048400030F4621B730B840B202931294A2BA69567
:1048500017940794202531254A2758F7660F771FAC
:10486000881F20F026173707480730F4620B730BB8
:10487000840B200D311D411DA09581F7B901842FB6
:104880009158880F9695879508959F3F31F09150E4
:1048900020F4879577956795B795880F911D969524
:1048A000879597F9089591505040660F771F881F9C
:1048B000D2F7089581E090E0F8940C94582BEF9291
:1048C0000F931F93CF93DF93E80147FD02C034E0BD
:1048D00001C034E1E42F440FFF0BF7FF03C0F19553
:1048E000E195F109E32E022F2E2FAE010E94DB2667
:1048F000CE01DF91CF911F910F91EF9008950F930B
:104900001F93CF93DF93009731F46115710519F46C
:1049100080E090E03AC08B01EC016EE070E081E055
:1049200090E00E94BF26FC01892B91F380E88383ED
:104930000115110571F01387028781E88383809147
:10494000310490913204892B21F4F0933204E093E6
:1049500031042097C9F0D187C08783818260838327
:104960008091330490913404892B71F4F0933404D2
:10497000E09333048091350490913604892B21F41F
:10498000F0933604E0933504CF01DF91CF911F916E
:104990000F910895AEE0B0E0E0EDF4E20C942F2B1F
:1049A0000D891E898EE08C831A8309838FEF9FE720
:1049B0009E838D83AE01475E5F4F6F89788DCE01F8
:1049C00001960E94ED242F813885F801E20FF31F34
:1049D00010822E96E4E00C944B2BACE0B0E0E3EFB9
:1049E000F4E20C94212B7C016B018A01FC011782FB
:1049F0001682838181FFBDC1CE0101964C01F70172
:104A00009381F60193FD859193FF81916F01882336
:104A100009F4ABC1853239F493FD859193FF8191FF
:104A20006F01853229F4B70190E00E948B2AE7CF0D
:104A3000512C312C20E02032A0F48B3269F030F47C
:104A4000803259F0833269F420612CC08D3239F004
:104A5000803339F4216026C02260246023C028609E
:104A600021C027FD27C030ED380F3A3078F426FFFB
:104A700006C0FAE05F9E300D1124532E13C08AE069
:104A8000389E300D1124332E20620CC08E3221F45A
:104A900026FD6BC1206406C08C3611F4206802C06C
:104AA000883641F4F60193FD859193FF81916F0162
:104AB0008111C1CF982F9F7D9554933028F40C5FBE
:104AC0001F4FFFE3F9830DC0833631F0833771F058
:104AD000833509F05BC022C0F801808189830E5FB5
:104AE0001F4F44244394512C540115C03801F2E067
:104AF0006F0E711CF801A080B18026FF03C0652DE8
:104B000070E002C06FEF7FEFC5012C870E94802A02
:104B10002C0183012C852F77222E17C03801F2E05B
:104B20006F0E711CF801A080B18026FF03C0652DB7
:104B300070E002C06FEF7FEFC5012C870E946E2AE4
:104B40002C012C852068222E830123FC1BC0832D81
:104B500090E048165906B0F4B70180E290E00E9458
:104B60008B2A3A94F4CFF50127FC859127FE819199
:104B70005F01B70190E00E948B2A31103A94F1E076
:104B80004F1A51084114510471F7E5C0843611F0F1
:104B9000893639F5F80127FF07C06081718182816C
:104BA00093810C5F1F4F08C060817181072E000C3C
:104BB000880B990B0E5F1F4F2F76722E97FF09C03F
:104BC00090958095709561957F4F8F4F9F4F20688E
:104BD000722E2AE030E0A4010E94C32AA82EA81851
:104BE00044C0853729F42F7EB22E2AE030E025C05C
:104BF000F22FF97FBF2E8F36C1F018F4883579F087
:104C0000B4C0803719F0883721F0AFC02F2F206152
:104C1000B22EB4FE0DC08B2D8460B82E09C024FFC7
:104C20000AC09F2F9660B92E06C028E030E005C06C
:104C300020E130E002C020E132E0F801B7FE07C019
:104C400060817181828193810C5F1F4F06C06081FA
:104C5000718180E090E00E5F1F4FA4010E94C32A83
:104C6000A82EA818FB2DFF777F2E76FE0BC0372DC0
:104C70003E7FA51450F474FE0AC072FC08C0372DA4
:104C80003E7E05C0BA2C372D03C0BA2C01C0B52C0E
:104C900034FF0DC0FE01EA0DF11D8081803311F457
:104CA000397E09C032FF06C0B394B39404C0832F89
:104CB000867809F0B39433FD13C030FF06C05A2C38
:104CC000B31418F4530C5B18B32CB31468F4B70185
:104CD00080E290E03C870E948B2AB3943C85F5CF1C
:104CE000B31410F43B1801C0312C34FF12C0B701CB
:104CF00080E390E03C870E948B2A3C8532FF17C0FE
:104D000031FD03C088E790E002C088E590E0B7017C
:104D10000CC0832F867859F031FF02C08BE201C0AE
:104D200080E237FD8DE2B70190E00E948B2AA51446
:104D300038F4B70180E390E00E948B2A5A94F7CFB1
:104D4000AA94F401EA0DF11D8081B70190E00E9460
:104D50008B2AA110F5CF332009F451CEB70180E2A0
:104D600090E00E948B2A3A94F6CFF70186819781D2
:104D700002C08FEF9FEF2C96E2E10C943D2B0F9336
:104D80001F93CF93DF93869F8001879F100D969F7F
:104D9000100D1124C8010E946928EC01009729F028
:104DA000A80160E070E00E94792ACE01DF91CF91E6
:104DB0001F910F9108954F925F926F927F929F92F1
:104DC000AF92BF92CF92DF92EF92FF920F931F9319
:104DD000CF93DF93CDB7DEB729970FB6F894DEBF38
:104DE0000FBECDBF6A01122FB02E2BE3201720F08B
:104DF000FF24F394F00E02C0BCE3FB2E0F2D27E03E
:104E0000AE014F5F5F4F0E949629AC018981982FB8
:104E10009970913031F0E1FC06C0E0FE06C090E2EE
:104E200005C09DE203C09BE201C090E0EE2DE07161
:104E300083FF3CC0911102C083E001C084E0811770
:104E400018F4212F281B01C020E0E1110BC0F6014E
:104E5000822F30E2882319F031938150FBCFC20EAC
:104E6000D11C20E0992329F0D6019C93F6013196BC
:104E70006F01C6010396E2FE0AC03EE4D6013C93F0
:104E800041E411964C93119712963C9306C03EE66E
:104E9000F601308341E641833283FC01322F40E248
:104EA000332309F442C041933150FACF82FF44C00A
:104EB000911102C083E001C084E0811718F4212F12
:104EC000281B01C020E0E1110BC0F601822F30E267
:104ED000882319F031938150FBCFC20ED11C20E002
:104EE000992329F0D6019C93F60131966F01C601F2
:104EF0000396E2FE0BC039E4D6013C933EE41196E2
:104F00003C93119736E412963C9307C039E6F601BC
:104F100030833EE6318336E63283FC01322F40E2B5
:104F2000332319F041933150FBCFFC01E20FF11D07
:104F300010828EEF9FEFB7C0F1E0911101C0F0E059
:104F40006F2F70E01416150624F49A012F5F3F4F5F
:104F500002C021E030E0260F371FBB2029F06B2D67
:104F600070E06F5F7F4F02C060E070E0260F371F78
:104F7000612F70E0261737071CF4121B212F01C088
:104F800020E03E2D387159F4D601322F60E23323F0
:104F900019F06D933150FBCFC20ED11C20E0FF23DE
:104FA00031F0D6019C93B6016F5F7F4F6B01E11129
:104FB0000BC0F601922F30E3992319F031939150F1
:104FC000FBCFC20ED11C20E09F2D940F3A81782F89
:104FD0007071A72E84FF03C0313309F49150191664
:104FE00024F4993018F098E001C091E0E42F852F67
:104FF00057FF02C0E0E080E06E2F782FE0E0F0E0A5
:10500000AEE29A2E3A01691A71082A01461A570A25
:105010000B2D10E01195019511096F3F8FEF780767
:1050200029F4D6019C92C60101966C0146175707D8
:1050300084F0661677066CF47F01E40CF51CA1E0A1
:10504000B0E0AC0FBD1FEA0EFB1ED7011196BC905D
:1050500002C090E3B92E615071093196C6010196E4
:105060007C016017710724F0D601BC926C01D5CF8A
:105070006417750741F4363320F4353321F4A11059
:1050800002C081E3B82EF601B082F701822F90E2D0
:10509000882319F091938150FBCFF701E20FF11DA6
:1050A000108280E090E029960FB6F894DEBF0FBE24
:1050B000CDBFDF91CF911F910F91FF90EF90DF90C7
:1050C000CF90BF90AF909F907F906F905F904F90E8
:1050D0000895CF93DF938230910510F482E090E041
:1050E000E0913904F0913A0420E030E0C0E0D0E0F3
:1050F000309711F14081518148175907C0F0481786
:10510000590761F482819381209719F09B838A83E8
:105110002BC090933A048093390426C021153105A1
:1051200019F04217530718F49A01BE01DF01EF018D
:105130000280F381E02DDCCF2115310509F1281B18
:10514000390B2430310590F412968D919C91139770
:105150006115710521F0FB019383828304C0909354
:105160003A0480933904FD01329644C0FD01E20FF8
:10517000F31F81939193225031092D933C933AC0B0
:105180002091370430913804232B41F420910201FF
:1051900030910301309338042093370420910001AB
:1051A000309101012115310541F42DB73EB74091F1
:1051B000040150910501241B350BE0913704F09157
:1051C0003804E217F307A0F42E1B3F0B281739070A
:1051D00078F0AC014E5F5F4F2417350748F04E0F53
:1051E0005F1F50933804409337048193919302C01A
:1051F000E0E0F0E0CF01DF91CF9108950F931F938E
:10520000CF93DF93009709F48CC0FC01329713828F
:1052100012820091390410913A040115110581F4AC
:1052200020813181820F931F2091370430913804FF
:105230002817390779F5F0933804E093370471C0E3
:10524000D80140E050E0AE17BF0750F412962D9100
:105250003C911397AD012115310509F1D901F3CF27
:105260009D01DA013383228360817181860F971F4C
:105270008217930769F4EC0128813981260F371FC3
:105280002E5F3F4F318320838A819B81938382836A
:10529000452B29F4F0933A04E093390442C0139665
:1052A000FC93EE931297ED01499159919E01240FC1
:1052B000351FE217F30771F480819181840F951FE8
:1052C000029611969C938E938281938113969C9360
:1052D0008E931297E0E0F0E0D80112968D919C91A8
:1052E0001397009719F0F8018C01F6CF8D919C91DE
:1052F00098012E5F3F4F820F931F2091370430910A
:1053000038042817390769F4309729F410923A04C1
:105310001092390402C01382128210933804009351
:105320003704DF91CF911F910F910895283008F035
:1053300027E03327DA01990F311D87FD9160009630
:105340006105710539F432602E5F3D9330E32A9593
:10535000E1F708959F3F30F080387105610509F04D
:105360003C5F3C5F3D93913008F08068911DDF9376
:10537000CF931F930F93FF92EF92192F987F9695DB
:10538000E92F96959695E90FFF27EE5DF94F99273E
:105390003327EE24FF24A701E70105900894079422
:1053A00028F4360FE71EF81E491F511D660F771FA0
:1053B000881F991F0694A1F70590079428F4E70E1B
:1053C000F81E491F561FC11D770F881F991F661FA2
:1053D0000694A1F70590079428F4F80E491F561F6C
:1053E000C71FD11D880F991F661F771F0694A1F74D
:1053F0000590079420F4490F561FC71FD81F990F17
:10540000661F771F881F0694A9F78491109517705F
:1054100041F0D695C79557954795F794E7941A9517
:10542000C1F7E8ECF5E06894159015913591659118
:10543000959105907FE27395E118F10A430B560BA5
:10544000C90BD009C0F7E10CF11E431F561FC91F3D
:10545000D01D7EF4703311F48A95E6CFE8940150A4
:1054600030F0080F0AF40027021708F4202F2395C4
:10547000022F7A3328F079E37D932A95E9F710C05B
:105480007D932A9589F60694979567953795179594
:105490001794E118F10A430B560BC90BD00998F089
:1054A00023957E9173957A3308F070E37C932013F3
:1054B000B8F77E9170617D9330F0839571E37D93B1
:1054C00070E32A95E1F71124EF90FF900F911F915F
:1054D000CF91DF91992787FD90950895FC01059064
:1054E000615070400110D8F7809590958E0F9F1FE6
:1054F0000895DC0101C06D9341505040E0F70895DC
:10550000FC016150704001900110D8F78095909592
:105510008E0F9F1F08950F931F93CF93DF93FB016F
:10552000238121FD03C08FEF9FEF28C022FF16C00B
:1055300046815781248135814217530744F4A08165
:10554000B1819D012F5F3F4F318320838C93268152
:1055500037812F5F3F4F3783268310C0EB01092F20
:10556000182F0084F185E02D0995892BE1F68E81B5
:105570009F8101969F838E83812F902FDF91CF9102
:105580001F910F910895FA01AA27283051F1203177
:1055900081F1E8946F936E7F6E5F7F4F8F4F9F4FC7
:1055A000AF4FB1E03ED0B4E03CD0670F781F891F09
:1055B0009A1FA11D680F791F8A1F911DA11D6A0FD7
:1055C000711D811D911DA11D20D009F468943F918A
:1055D0002AE0269F11243019305D3193DEF6CF0189
:1055E0000895462F4770405D4193B3E00FD0C9F74F
:1055F000F6CF462F4F70405D4A3318F0495D31FDBC
:105600004052419302D0A9F7EACFB4E0A69597950E
:10561000879577956795BA95C9F7009761057105E4
:1056200008959B01AC010A2E06945795479537952E
:105630002795BA95C9F7620F731F841F951FA01D88
:1056400008952F923F924F925F926F927F928F9226
:105650009F92AF92BF92CF92DF92EF92FF920F9301
:105660001F93CF93DF93CDB7DEB7CA1BDB0B0FB60B
:10567000F894DEBF0FBECDBF09942A8839884888C8
:105680005F846E847D848C849B84AA84B984C8845E
:10569000DF80EE80FD800C811B81AA81B981CE0F55
:1056A000D11D0FB6F894DEBF0FBECDBFED0108953A
:0456B000F894FFCF9C
:1056B40000003B048000000000002B0A75055F0514
:1056C4003D055105720A00000000CA0D9A0D920DA5
:1056D4007E0D6F0D6E0D00000000EA137505411379
:1056E400C0138A17F9168B137813920C9F13F117B2
:1056F400CB170613CB128C126A0BF30A940A4D696A
:105704006C6C694F686D204D6574657200436F6EF3
:1057140074726F6C204669726D77617265005665AC
:105724007273696F6E20312E302E302032356A75D7
:105734006C3230313700417574686F72203A204AF8
:105744002E462E46697474657200436F70797269CF
:105754006768742028632920323031370045616737
:105764006C6520416972204175737472616C696162
:1057740020702F6C00416C6C207269676874732010
:105784007265736572766564002D2D2D2D2D004F85
:105794007665722052616E6765006D6963726F2071
:1057A4004F686D73006D696C6C69204F686D730090
:1057B4002020204F686D732020200046696C74659A
:1057C400726564203A00524D532044657620203A95
:1057D4000044495343484152474544004E4F2042F8
:1057E4004154544552590042617474657279000001
:00000001FF
